:020000040800F2
:1000000078080020A90100081B2B0008372A0008E7
:10001000192B0008D9140008952D000800000000D5
:100020000000000000000000000000001F2B00087E
:1000300013150008000000001D2B0008212B0008EC
:10004000C3010008C3010008C3010008C301000880
:10005000C3010008C3010008C3010008C301000870
:10006000C3010008C3010008C3010008DD14000833
:10007000C3010008C3010008C3010008C301000850
:10008000C3010008C301000889130008C301000868
:10009000C3010008C3010008C3010008C301000830
:1000A000C3010008C3010008C3010008C301000820
:1000B000C3010008952B0008C3010008C301000814
:1000C000C3010008C3010008C3010008C301000800
:1000D000C3010008C3010008C3010008C3010008F0
:1000E000C3010008C3010008C301000800F002F8C2
:1000F00000F04AF80AA090E8000C82448344AAF178
:100100000107DA4501D100F03FF8AFF2090EBAE875
:100110000F0013F0010F18BFFB1A43F0010318473B
:100120004036000060360000103A24BF78C878C11D
:10013000FAD8520724BF30C830C144BF04680C60ED
:10014000704700000023002400250026103A28BF35
:1001500078C1FBD8520728BF30C148BF0B60704739
:10016000662903F0A582642900F0528000207047C0
:100170001FB500F0DDFB04000020002102F070FF3D
:10018000E0601FBD10B510BD00F0CEFC1146FFF7BA
:10019000EFFF02F02BFE00F0ECFC03B4FFF7F2FFE0
:1001A00003BC00F02FFD00000948804709480047C4
:1001B000FEE7FEE7FEE7FEE7FEE7FEE7FEE7FEE717
:1001C000FEE7FEE704480549054A064B7047000074
:1001D000912B0008ED00000878020020780800202C
:1001E00078040020780400200FB41CB5074B06AA41
:1001F0007B4469460090059800F081FB0020694629
:1002000000F090FB1CBC5DF814FB000031070000FF
:100210002DE9F0410646002410687529314616A5DF
:1002200010D0AFF30080002802DA404213A507E0A7
:1002300031688A0701D512A502E0490704D511A546
:10024000012401E0AFF3008000210A2206F1240717
:1002500009E0B0FBF2FCB0FBF2F302FB1C00303013
:1002600078541846491C0028F3D123462A463046C4
:10027000BDE8F04100F0D8B8000000002D000000FB
:100280002B000000200000002DE9F0474FF0000A8D
:1002900089460446C0F820A02046E1688847002827
:1002A00076D0252806D0D4E901219047206A401C49
:1002B0002062F1E7E168204600258847C4F81CA0C9
:1002C00006460027C4F818A02A2E09D0304602F0AE
:1002D00086FD38B304EB8708303EC8F8186019E093
:1002E00059F8041B204604EB87029161E1688847B6
:1002F000012F064618D1E069002820DA25F02005F4
:100300001DE0D8F8180000EB800006EB4000303804
:10031000C8F818002046E1688847064602F05FFDED
:100320000028EED1012F0AD02E2E08D12046E168F8
:1003300088477F1C0646022F45F02005C4DBA069D4
:10034000002803DA404245F00105A061E80701D02A
:1003500025F01005B6B1A6F14100192802D82036C3
:1003600045F400654A463146204625604D46FFF774
:10037000F7FE58B1012806D0ED1D25F0070000F169
:10038000080989E704E005F1040985E730468AE7B2
:10039000206ABDE8F08710B5431C02E010F8011B8D
:1003A00071B18107FAD14FF0013202C88C1A8C4327
:1003B00014EAC211F9D0C01A0A0603D0C01E10BD3B
:1003C000C01A10BD0A0401D0801E10BD0902FCD065
:1003D000401E10BD4FF0000200B5134694469646ED
:1003E000203922BFA0E80C50A0E80C50B1F1200148
:1003F000BFF4F7AF090728BFA0E80C5048BF0CC0F6
:100400005DF804EB890028BF40F8042B08BF704753
:1004100048BF20F8022B11F0804F18BF00F8012BC5
:1004200070477047704770472DE9F0470D46994671
:100430009246044600F124080168880604D5E06964
:1004400021F01001216000E00120A84201DD471BDE
:1004500000E00027A1697A1902EB0900081AA061DF
:100460002078C00602D42046AFF30080002608E0C2
:10047000D4E901211AF806009047206A401C761C36
:1004800020624E45F4DB2078C0060AD52046AFF343
:10049000008006E0D4E9012130209047206A401C0A
:1004A0002062381EA7F10107F4DC07E0D4E901213E
:1004B00018F805009047206A401C2062281EA5F10C
:1004C0000105F3DC2046AFF300802078000602D55A
:1004D0000220BDE8F0870120FBE770472DE9FF4FC0
:1004E0000C461E464FF0FF378BB0D2E90001DDF815
:1004F00060800A908A46C1F30A5505B93D4600213D
:1005000008464FF00000BAF1000F00F4400005DA91
:1005100000EB80004FF4400101EA50004FEA90598F
:10052000B9F1010F00DDB9460A9850EA4A000ED031
:1005300044F61050A5F2FF3545432F14B8F1000FD3
:100540001ED07542291E1EDDC9F100021CE0B8F163
:10055000010F4FF0000001D0302103E0F24305E02D
:100560002154401CB042FBDB3046002200212154C4
:100570000B99C1F80880C1E900200FB0BDE8F08FE9
:10058000BD1B6D1CDEE74A4600DA694206A800F092
:1005900059FA06AB93E8070003AB83E8070050461F
:1005A0000A9900F036FB8DE80700A0F500501F38CF
:1005B00000900398002D09DD42F21F014A460844CD
:1005C00003A90390684600F095FD08E0A0F50050EF
:1005D0004A461F3803A90390684600F09FFD8DE846
:1005E00007000004000C03D04FF0FF30410800E08A
:1005F0001046B8F1000F03D00022009215461EE00D
:10060000751E05D400F098F9303262556D1EF9D58B
:10061000B3460122084302D000227F1C04E0207868
:10062000302801D100227F1E002A099786D01DE0C4
:10063000112D07DA00F080F9303262556D1C50EA56
:100640000102F5D1084302D00098C8B10EE00021A4
:10065000681E05E0235C625C63542254401E491C02
:100660008142F7DBAB46A81B401E0990002004F82E
:100670000B000B98099AC0F80880C0E9002B7CE7B2
:1006800011264FF0000859E72DE9F04F884604463F
:10069000D21D22F0070191B0D1E90001CDE90A0194
:1006A00002F079FB02460B98C00F01D02D2007E025
:1006B0002068810701D52B2002E0202101EAC0003B
:1006C000032A099001D0072A05DB0346414620464C
:1006D00000F078F90BE12078800601D5E06900E0B0
:1006E0000620B8F1650F814606D0B8F1660F18D024
:1006F000B8F1670F70D131E00020B9F1110F00900F
:1007000001DB112301E009F101030AAA01A90CA8E8
:10071000FFF7E4FEDDE90C70002609F101058346D0
:1007200047E001204B4600904FF000470AAA01A97C
:100730000CA8FFF7D3FEDDE90DB00C995D4600264D
:1007400010B909F101000D18B9EB050003D4C0F18F
:10075000FF3609F10105A5EB09002BE0B9F1010F06
:1007600001DA4FF001090020B9F1110F009048465D
:1007700001DD112300E003460AAA01A90CA8FFF736
:10078000ADFEDDE90C704D4600268346207800075B
:100790000AD4AB4500DA5D4601A8012D04DD4119FC
:1007A00011F8011C302907D04F4502DA17F1040F68
:1007B00004DA012082460FE06D1EEEE7002F02DC16
:1007C000ED1B3E4403E0781CA84200DD7D1CB81BF5
:1007D00000F1010A4FF000472078000703D4AA4532
:1007E00001DB4FF0FF3A0021B7F1004F0DF1430854
:1007F0008DF8431024D002202B23002F01DA7F42F2
:100800002D230A21021EA0F1010000DC5FB197FB3D
:10081000F1FC97FBF1F201FB1C7C17460CF1300C4C
:1008200008F801CDEEE7A8F1010003702188090561
:1008300001D5452100E06521A0F1010800F8011C67
:1008400009980FA9A1EB0807FF1D00B1012041196C
:1008500001EBEA70A1693844081A401EA0612078B3
:10086000C00602D42046AFF30080099828B1D4E92D
:1008700001219047206A401C20622078C00622D5C2
:100880002046AFF300801EE0002E04DBB34502DDFE
:1008900001A8805D00E03020D4E901219047206A62
:1008A000401C2062761CAAF101005FEA000A0AD10E
:1008B00000F03EF8C0680168405CD4E9012190472F
:1008C000206A401C2062281EA5F10105DCDC07E03F
:1008D000D4E9012118F8010B9047206A401C2062DE
:1008E000381EA7F10107F3DC2046AFF30080032098
:1008F00011B043E601694A1C02610878704700B5EF
:100900008FB0CDE901310021059105497944CDE948
:10091000031011466846FFF7B7FC0FB000BD00009A
:10092000E5FFFFFF0A6802F8010B0A60704700004C
:10093000004870473802002030B5B0F10A024FEA93
:10094000900E71F100034EEA817EB0EB0E0061EB78
:1009500091014FEA101E4EEA017E10EB0E0041EBB2
:1009600011114FEA102E4EEA016E10EB0E0041EB12
:1009700011214FEA104E4EEA014E10EB0E0041EBF2
:100980001141401841F100014FEAD00040EA4170A6
:100990004FEAD10110EB80054FEA810444EA9074DC
:1009A00044EB01046D1944EB0404521BA3414FF0C6
:1009B000000348BF0A3200D530BD401C41F10001A0
:1009C00030BD00002DE9F0411F46044603260168B2
:1009D000072A01F4006004DB08B116A505E016A59E
:1009E00003E008B115A500E015A521F01000206076
:1009F000A069C01EA0610FB1401EA0612046AFF3E8
:100A000000804FB1D4E9012138469047206A401C4C
:100A10002062C01C206206E0206AFAE7D4E90121C6
:100A200015F8010B9047761EF8D22046AFF30080F0
:100A3000BDE8F0814E414E006E616E00494E4600A9
:100A4000696E66002DE9F047814616468AB0334844
:100A500078440DC88DE80D0030487844801C03AC04
:100A60000DC884E80D0041F69B300844372190FB07
:100A7000F1F290FBF1F5A5F1800501FB12041B3C9E
:100A800002D56442012000E00020DFF890A08046FB
:100A90000027FA44AAF1BE0A0DE0E00709D0324669
:100AA000684607EB47010AEB810100F037FB8DE850
:100AB000070064107F1C002CEFD1184F7F44AC3F1F
:100AC00018E0E80714D007EB04100DF1180A90E8BD
:100AD0000E008AE80E00C068F04201D19819089013
:100AE000324606A903A800F019FB03AB83E8070010
:100AF0006D10641C002DE4D132466946B8F1000F38
:100B000003A802D000F0F6FA01E000F007FBC9E903
:100B10000001C9F808200AB0BDE8F087F42C0000F5
:100B200000487047180200207546FFF7F9FFAE46EF
:100B300005006946534620F00700854618B020B5E9
:100B4000FFF740FBBDE820404FF000064FF00007E4
:100B50004FF000084FF0000B21F00701AC46ACE865
:100B6000C009ACE8C009ACE8C009ACE8C0098D46D2
:100B7000704710B50446AFF300802046BDE8104032
:100B8000FFF70BBB4FF0013C50F8042B51F8043B2E
:100B90009A4221D1A2EB0C03934313EACC1317D151
:100BA00050F8042B51F8043B9A4215D1A2EB0C03E8
:100BB000934313EACC130BD150F8042B51F8043BA8
:100BC0009A4209D1A2EB0C03934313EACC13DBD076
:100BD0004FF00000704700BFD01A01BAB1FA81F19E
:100BE00001F0180122FA01F0CB40C1F12001DBB283
:100BF000C0B2C01A2CFA01F3D11A914311EAC31101
:100C0000E6D1704701491820ABBEFEE7260002007E
:100C100070475FEA400C08BF91F0000F4FEA8C2349
:100C20004FEAC12243EA51514FEA1C5018BF00F568
:100C3000F0404FEA300018BF41F000415FEA6C5CC1
:100C400000F02980BCF1FF3F08BF40F080407047B2
:100C5000130C06BF12044FF0100C4FF0000C130ED3
:100C600004BF12020CF1080C130F04BF12010CF1A7
:100C7000040C930F04BF92000CF1020CD30F04BFBD
:100C800052000CF1010C11464FF00002A0F11F00C0
:100C9000A0EB0C00704711F0004F08BF704731F017
:100CA00000413FF4D5AF0B0C06BF09044FF0100C08
:100CB0004FF0000C0B0E04BF09020CF1080C0B0FD7
:100CC00004BF09010CF1040C8B0F04BF89000CF167
:100CD000020CCB0F04BF49000CF1010CCCF1200336
:100CE000A0EB0C0022FA03F302FA0CF241EA030132
:100CF00000F10100704720F07F4C80EA030023F0F0
:100D00007F47ACEB070303F57C5300F0004003F191
:100D1000FF032DE980494FEA154B09B44FEA14430C
:100D200025EA0B4E24EA03480FF2042606EB1327AC
:100D300049083E785FEA320203FB0667C7F5000701
:100D400007FB06F64FEA54374FEAD64606F102068D
:100D500007FB066CCCF1005C4FEA1C472CEA074C01
:100D600007FB06F40CFB06F504EB15464FEA961656
:100D700034BF00204FF000404FEAD13706FB07FC9C
:100D80004FEA1C4C0CFB0BF7D21B03FB0CF761EB7F
:100D900007010CFB0EF7B0EB074072EB17420CFBA0
:100DA00008F734BFA2EB0742B2EB074261EB1741F1
:100DB0004FEA0C444FEA910706FB07FC4FEA1C4C34
:100DC0000CFB0BF7B0EBC74072EB573203FB0CF791
:100DD00034BFA2EBC742B2EBC74261EB57310CFB09
:100DE0000EF7B0EBC70072EB57720CFB08F734BF7D
:100DF000A2EBC702B2EBC70261EB5771039F4FEA48
:100E0000816141EA921104EBCC044FEAD1374FEAF9
:100E1000826206FB07FC42EA90124FEA80604FEACA
:100E20001C4C0CFB0BF7D21B03FB0CF761EB07010F
:100E30000CFB0EF7B0EB074072EB17420CFB08F708
:100E400034BFA2EB0742B2EB074261EB17414FEA16
:100E50008C554FEA910704EB9C2406FB07FC4FEAF4
:100E60001C4C0CFB0BF7B0EBC74072EB573203FB8B
:100E70000CF734BFA2EBC742B2EBC74261EB57316C
:100E80000CFB0EF7B0EBC70072EB57720CFB08F7C8
:100E900034BFA2EBC702B2EBC70261EB577115EB8F
:100EA0004C254FEA816141EA92114FEA82624FEA92
:100EB000D13742EA901206FB07FC44F100044FEAE6
:100EC00080604FEA1C4C0CFB0BF7D21B03FB0CF7AA
:100ED00061EB07010CFB0EF7B0EB074072EB17421A
:100EE0000CFB08F734BFA2EB0742B2EB074261EB01
:100EF000174115EB1C154FEA813141EA92414FEA47
:100F0000823242EA90424FEA80304FEA0C7644F156
:100F1000000448EA03434EEA0B484FF0000EB2EBE0
:100F2000080C71EB030724BF624639464EEB0E0EE8
:100F30004FF0000B0018524149414BEB0B0BB2EB49
:100F4000080C71EB03077BF1000B24BF62463946A6
:100F50004EEB0E0E4FF0000B0018524149414BEB87
:100F60000B0BB2EB080C71EB03077BF1000B24BFFA
:100F7000624639464EEB0E0E51EA020718BF46F0A4
:100F8000010616EB0E7655F1000254F1000103D56F
:100F9000BDE88901BDE80088BDE88901BDE80048D9
:100FA000B619524141EB0101A3F101037047808062
:100FB0007F7E7D7C7B7A79787776767574737271B3
:100FC00071706F6E6E6D6C6C6B6A6A69686867666B
:100FD00066656464636362616160605F5F5E5E5DFD
:100FE0005D5C5C5B5B5A5A59595858575756565571
:100FF00055555454535352525251515050504F4FD3
:101000004F4E4E4D4D4D4C4C4C4B4B4B4A4A4A4922
:101010004949484848474747474646464545454465
:101020004444444343434342424242414141002BF2
:1010300026D4770021D01CB54FEA370703B44FF010
:1010400010004FF010014FF000000FBCBDE8104041
:101050000BF1010BBBF1010F08BF5FEA170722BFBD
:1010600012F1010211F101014FF0004143F10003BF
:1010700000F0004043EA00007047F9D35708DAE770
:1010800046EA064613F1400F4FEA16461FDD13F1FC
:10109000200FDFBF16430A46002120335B42C8D031
:1010A000C3F1200746EA064602FA07F74FEA16465A
:1010B00046EA0706C3F1200722FA03F201FA07F70E
:1010C00021FA03F14FF0000342EA0702B1E746EAD2
:1010D000020646EA06464FEA164646EA0106BCBF45
:1010E00046EA0646360C4FF000034FF000024FF080
:1010F00000019EE72DE9C048934630B491E83800DE
:1011000007C831EA400C48BF34EA430C03D5FFF767
:10111000F2FDFFF78CFFF0BCBDE800882DE9C04868
:10112000934630B491E8380007C810F0804F08BFEC
:1011300013F0804F03D100F005F8FFF778FFF0BC03
:10114000BDE8008820F07F4780EA030023F07F4C51
:1011500007EB0C03A3F57C5300F00040A3F1FE0362
:1011600092F0000F00F0B38095F0000F00F0778050
:101170002DE901494FEA11404FEA144621EA00489F
:1011800000FB06FC24EA064708FB06F607FB08F806
:1011900000FB07F718EB06484CEB164C4FEA124BD6
:1011A00018EB07484FEA15464CEB174022EA0B4E66
:1011B0000BFB06FC25EA06470EFB06F607FB0EFEB8
:1011C0000BFB07F71EEB064E4CEB164C4FF00006E0
:1011D0001EEB074E4CEB174B18EB0B0840F10000D1
:1011E00018EB0E0B58EB000840F100008F1A4FF07F
:1011F00000013CBFC943661B14BFB5EB040C0021C2
:101200003CBFC943F61B4FEA17444EEA8E0E27EA4D
:1012100004454FEA1C4704FB07622CEA074C05FB18
:1012200007F70CFB05F604FB0CFC16EB074642EB3C
:10123000174216EB0C4642EB1C421BEB060658EB22
:101240000202414146EA9E0601D5BDE80189B61970
:10125000524141EB0101A3F10103BDE801894FEACD
:1012600014454FEA114724EA054621EA074C05FBDD
:1012700007F406FB07F70CFB06F105FB0CFC11EB72
:10128000074144EB17444FEA124711EB0C4144EB82
:101290001C4422EA074C05FB07F206FB07F70CFB90
:1012A00006F605FB0CFC16EB074642EB174216EB65
:1012B0000C4642EB1C456A1854F1000148BF7047C8
:1012C000B619524141EB0101A3F10103704795F0BA
:1012D000000F37D04FEA11424FEA144721EA024685
:1012E00024EA074C02FB07F106FB07F70CFB06F4A8
:1012F00002FB0CFC14EB074441EB17414FEA154786
:1013000014EB0C4441EB1C4125EA074C02FB07F5AA
:1013100006FB07F70CFB06F602FB0CFC16EB074678
:1013200045EB174516EB0C4645EB1C42121951F1E3
:10133000000148BF7047B619524141EB0101A3F1CA
:10134000010370474FEA14454FEA114724EA054666
:1013500021EA074C05FB07F106FB07F70CFB06F239
:101360004FF0000605FB0CFC12EB074241EB174166
:1013700012EB0C4251EB1C4148BF7047921841EBF5
:101380000101A3F101037047014800F048B90000D2
:101390001C00002070B5044600688168C943C90775
:1013A00017D1816821F00101816000F011FD05462F
:1013B0000AE000BF00F00CFD401B022804D92068A1
:1013C0008068C043C00706D020688068C043C0075B
:1013D000F0D0002070BDA06A40F01000A062E06A6A
:1013E00040F00100E062012070BD10B50146406A86
:1013F000826A12F0500F05D0006A026BBDE81040FF
:1014000008461047816A41F4007181620168896869
:10141000C1F3424107290CD1017B51B9816A21F402
:1014200080718162816AC90403D4816A41F001013B
:10143000816200F0F1F810BD10B5406A816A41F098
:1014400040018162C16A41F00401C16200F0E6F826
:1014500010BD10B5406A00F0E0F810BDF8B50026E8
:101460000446009600688168C943C9072DD0816889
:1014700041F001018160164816490068B0FBF1F0A7
:1014800000E0401E00900028FBD100F0A1FC0546C2
:1014900016E000BF00F09CFC401B022810D9206819
:1014A0008068C043C0070BD0A06A40F01000A06263
:1014B000E06A40F00100E06284F824600120F8BD99
:1014C00020688068C043C007E4D10020F8BD000058
:1014D0001800002040420F00FEE70000014800F025
:1014E00077BA0000D401002030B590F840500124B4
:1014F000AC40C56B6C60046863604368102B036884
:1015000003D099600068C26030BD9A600068C16015
:1015100030BD704772B6FEE770470000F8B5002492
:10152000009490F824202546012A12D0012280F848
:1015300024204A681F23072A0DD20668776B521EA3
:1015400002EB820293409F430B6893401F437763F3
:1015500019E00220F8BD06680D2A0AD2376BD21FA7
:1015600002EB820293409F430B6893401F43376313
:1015700009E0F76A0D3A02EB820293409F430B6841
:1015800093401F43F7620A68072306680A2A0AD3B2
:10159000F7680A3A02EB420293409F438B689340FC
:1015A0001F43F76008E0376902EB420293409F4314
:1015B0008B6893401F4337610A68102A01D0112AB3
:1015C00020D1124B02689A4217D193681B0219D49A
:1015D000936843F4000393600968102912D10C4901
:1015E0000C4A0968B1FBF2F101EB8101490000E00E
:1015F000491E00910029FBD104E0816A41F02001DD
:101600008162012480F824502046F8BD0024014066
:101610001800002040420F0070477047704710B517
:10162000044600684168890626D50168890723D5E4
:10163000A16AC90603D4A16A41F40071A16281685C
:10164000C1F34241072910D1217B71B9416821F0D2
:1016500020014160A06A20F48070A062A06AC004EA
:1016600003D4A06A40F00100A0622046FFF7D4FF37
:1016700021686FF0120008602068416809062ED5C5
:10168000016849072BD5A16AC90603D4A16A41F4B0
:101690000051A1628168C1F30231072909D0416874
:1016A000490515D48168C1F34241072910D1217B36
:1016B00071B9416821F080014160A06A20F4805036
:1016C000A062A06AC00503D4A06A40F00100A06235
:1016D0002046FFF721FF21686FF00C0008602068AA
:1016E000416849060DD50068C0070AD0A06A40F4D9
:1016F0008030A062204600F093F821686FF001006E
:10170000086010BD2DE9F0414FF0000704003D4690
:101710007ED0A06A002628B9E66284F824602046BC
:1017200000F080F82046FFF735FEA16AC90600D414
:1017300020B1A06A40F01000A06269E0A16A21F423
:10174000885141F00201A1626268E169237B0A438A
:1017500047EA43010A43A1684FF48077B94209D0B0
:10176000012907D05FF0000194F814C0BCF1010F0B
:1017700002D00AE03946F7E7F3B1A36A43F0200349
:10178000A362E36A43F00103E3622368D3F804C071
:101790002CF4694C4CEA010CC3F804C021688B6836
:1017A000DFF870C003EA0C0313438B60A168B942F1
:1017B0000BD0012909D00CE0DFF85CC0A3690CEB69
:1017C00043330B4343F40061DFE7218A0D05A5F5A0
:1017D00080152168CB6A23F470032B43CB62216808
:1017E00089680E4B1940914208D1E662A16A21F046
:1017F000020141F00101A162BDE8F081A06A20F080
:10180000020040F01000A062E06A40F00100E062D7
:101810000120F1E7FDF7E1FF00E0FFFFFE0E1FFFF3
:101820007047000070B586B000250646009501950A
:101830000295039500681E49884236D11D49886982
:1018400040F400708861886900F400700490886931
:1018500040F0040088618869694600F00400049043
:101860001320009003200190134800F0C1F9144C9C
:101870001248C4E900058020C4E9025080002061BC
:10188000800060612020C4E90605204600F04AF986
:1018900008B1FFF73FFE3462002211461220666253
:1018A00000F002FB122000F0F1FA06B070BD00005B
:1018B00000240140001002400008014008000240DE
:1018C000D40100202DE9F047894604463B490068D1
:1018D0003B4F0E1D9046884201D0B84207D1306878
:1018E00010F4702F03D001252846BDE8F08794F846
:1018F000240001280CD0012084F824002046FFF7A2
:10190000ADFD05004FF0000004D084F82400EBE7A3
:101910000220EAE7A16A40F60162914341F4807136
:10192000A1622168B94218D1326812F4702F14D024
:10193000A16A41F48011A1623168490505D5A16A07
:1019400021F4005141F48051A162A16AC9040AD571
:10195000E16A21F00601E16206E0A26A22F4801247
:10196000A2624968E9E7E06284F82400216A154828
:101970008862216A1448C862216A14480863216891
:101980006FF0020008602068816841F48071816016
:10199000216843464A464C31206A00F0F1F820683D
:1019A0008168C1F342410729816803D041F4801165
:1019B000816099E741F4A001FAE7000000240140AA
:1019C00000280140EB1300085314000839140008E4
:1019D0002DE9F05FC16B0C6801680B68D0F840C05E
:1019E000042202FA0CF2494DDFF824A1494E4A4F75
:1019F000DFF828B1DFF828E122422CD05A072AD597
:101A00000A68920603D40A6822F004020A60016898
:101A1000A94201D1042219E0514501D1402215E02B
:101A2000B14202D14FF4806210E0B94202D14FF4CA
:101A300080420BE0594502D14FF4802206E0714507
:101A400002D14FF4800201E04FF080622F49083943
:101A50004A60C16A3BE04FF0020808FA0CF818EA45
:101A6000040F4FF000094FF0010235D05FEA837890
:101A700032D50B689B0605D40B6823F00A030B6074
:101A800080F821200168A94201D1022219E05145C4
:101A900001D1202215E0B14202D14FF4007210E0D2
:101AA000B94202D14FF400520BE0594502D14FF434
:101AB000003206E0714502D14FF4001201E04FF010
:101AC0000072124908394A6080F82090816A002922
:101AD0001AD0BDE8F05F0847082505FA0CF5254245
:101AE00012D01B0710D50B6823F00E030B6090F883
:101AF0004010C36B02FA01F15960826380F8212023
:101B000080F82090016BE2E7BDE8F09F08000240FA
:101B10001C000240300002404400024058000240D5
:101B20006C00024030B528B308C813491422194488
:101B3000B1FBF2F18900C163104981630221417751
:101B40001A6843F6F0718A43D0E900142143D0E9C2
:101B500002452C432143046921434469214384699C
:101B6000214311431960002141630122427701772B
:101B7000084630BD012030BDF8FFFDBF0000024027
:101B800070B5044690F82000002501280CD00120F3
:101B900084F8200094F821600020012E06D084F8FB
:101BA00020000225284670BD022070BD022684F860
:101BB0002160A0632068066826F0010606602046C2
:101BC000FFF792FCE06A00282068016802D041F02B
:101BD0000E0106E021F0040101602068016841F077
:101BE0000A0101602068016841F001010160D9E744
:101BF0002DE9F84FDFF8B891002409F1040A0AF141
:101C0000040B23460F270BF1040EC9E00125A54064
:101C10002A40AA427DD1674ED1F804C0ACEB060839
:101C2000B44532D014DCBCF1030F3AD009DCBCF16E
:101C3000000F2AD0BCF1010F1CD0BCF1020F31D132
:101C40001DE0BCF1110F17D0BCF1120F2AD119E021
:101C5000B8F5881F19D006DCB8F5803F15D0B8F567
:101C6000801F1FD111E0B8F5001F0ED0B8F5041F7A
:101C700018D10AE0CB6815E0CB681B1D12E0CB68D9
:101C800008330FE0CB680C330CE08B682BB1012BD1
:101C90004FF0080303D0456104E0042302E005612E
:101CA00000E00023FF2A01D8064601E000F1040607
:101CB0004FEA840501D9A5F12005D6F8008007FA7E
:101CC00005FC28EA0C0803FA05F548EA0508C6F8F9
:101CD00000804D68ED0062D5374DAE6946F00106D3
:101CE000AE61AD6924F0030605F001050095334DA2
:101CF00006EB050CDCF80850A607360F07FA06F8C5
:101D000025EA0805DFF8B880404503D14FF0000808
:101D100017E044E0DFF8AC80404502D14FF0010805
:101D20000FE0DFF8A480404502D14FF0020808E040
:101D3000DFF89880404502D14FF0030801E04FF0F2
:101D4000040808FA06F848EA0508CCF808804D6847
:101D5000D9F80060ED034D4601D5164300E09643E7
:101D60002E604D68DAF80060AD03554601D5164384
:101D700000E096432E604D68DBF80060ED025D46A2
:101D800001D5164300E096432E604D68DEF80060F2
:101D9000AD02754601D5164300E096432E60641CE3
:101DA0000D682A46E5407FF431AFBDE8F88F0000AA
:101DB000000401400000111000100240000001402A
:101DC00000080140000C01400010014000140140D7
:101DD00001488068704700000C00002002488168BC
:101DE00002781144816070470C000020074810B54C
:101DF000016841F010010160032000F075F8002037
:101E000000F006F800F024F8002010BD0020024089
:101E100070B50D4D04464FF47A712878B1FBF0F09F
:101E20000A490968B1FBF0F000F062FB48B9102CD8
:101E300007D200222146501E00F036F800206C60C8
:101E400070BD012070BD00000C00002018000020B3
:101E50000C4808B5816941F001018161816901F097
:101E600001010091C16941F08051C161C06900F078
:101E7000805000900448416821F0E06141F08061A9
:101E8000416008BD0010024000000140002809DB4D
:101E900000F01F02012191404009800000F1E02084
:101EA000C0F8001170470000F0B40E4B1B680C46E0
:101EB000C3F30223C3F10705042D00D90425191D1E
:101EC000072901D2002300E0DB1E012606FA05F1F6
:101ED000491E214099409E40761E16403143F0BC79
:101EE00000F06DBF0CED00E0064900F00702086845
:101EF0004FF6FF03184040EA0220034A10430860EF
:101F0000704700000CED00E00000FA052DE9F843F1
:101F100005460078354CC00754D0E0690026C00063
:101F200008D4E06940F08050E061E069012600F0EB
:101F3000805000902E480168C90512D4016880467F
:101F400041F480710160FFF743FF074605E000BFE1
:101F5000FFF73EFFC01B642823D8D8F80000C00557
:101F6000F6D5206A10F4407021D0A98801F44071A0
:101F700081421CD0206A1F49012220F440700A606F
:101F800000220A602062C00711D0FFF721FF074638
:101F900041F2883808E000BFFFF71AFFC11B414536
:101FA00002D90320BDE8F883206A8007F4D5206AAF
:101FB000696820F44070084320621EB1E06920F097
:101FC0008050E0612878800705D56068A96820F412
:101FD0004040084360602878C00605D56068E9681D
:101FE00020F48000084360600020DBE7001002401E
:101FF00000700040400442422DE9F0470F460500C2
:1020000061D0434E306800F00700B84209D2306812
:1020100020F0070038433060306800F00700B84215
:1020200051D128683B4C810712D5400703D5606821
:1020300040F4E06060602878000703D5606840F4F1
:10204000605060606068A96820F0F000084360603C
:102050002878C00728D06868012810D02168022895
:1020600010D0890700292EDA616821F003010143AD
:102070006160FFF7ADFE804641F288390DE02168CE
:102080008903EFE78901EDE7FFF7A2FEA0EB080166
:10209000494502D90320BDE8F0876068696800F00F
:1020A0000C00B0EB810FEFD1306800F00700B842B0
:1020B0000BD9306820F0070038433060306800F0FA
:1020C0000700B84201D00120E5E72878400705D590
:1020D0006068E96820F4E0600843606028780007E1
:1020E00006D56068296920F4605040EAC10060604C
:1020F00000F038F86168084AC1F30311515CC84028
:102100000649086006480068FFF782FE0020C2E723
:102110000020024000100240B436000818000020E1
:10212000100000200448054900684968044AC1F3CA
:102130000221515CC8407047180000200010024086
:10214000C43600080448054900684968044AC1F3D8
:10215000C221515CC84070471800002000100240A6
:10216000C436000812A185B00FC98DE80F0014A075
:10217000144A006804905168134801F00C03042BC2
:1021800010D0082B0ED1C1F38343C9031DF80300FF
:102190000AD5516804AAC1F34041515C0A4A504330
:1021A000B0FBF1F005B0704708494843FAE700007A
:1021B00002030405060708090A0B0C0D0E0F101088
:1021C000010200000010024000127A0000093D00E8
:1021D0002DE9F84F040070D02078C04DC00749D0D9
:1021E0006868C0F38100012807D06868C0F38100E7
:1021F000022809D16868C00306D52868800339D54C
:1022000060680028E7D035E06068B0F5803F0BD00B
:1022100010B1B0F5A02F11D0286820F480302860CC
:10222000286820F4802002E0286840F4803028608C
:10223000606890B1FFF7CCFD06460AE0286840F4DC
:1022400080202860F0E700BFFFF7C2FD801B6428F4
:1022500073D828688003F7D50CE0FFF7B9FD064670
:1022600005E000BFFFF7B4FD801B6428F0D82868A4
:102270008003F7D420789A4E80074FF001094FF081
:10228000000839D5686810F00C0F07D06868C0F3F3
:102290008100022809D16868C00306D42868800735
:1022A00014D52069012808D110E02069B0B1C6F822
:1022B0000090FFF78DFD074605E00AE1FFF788FD76
:1022C000C01B0228C4D828688007F7D52868616930
:1022D00020F0F80040EAC10028600DE0C6F8008058
:1022E000FFF776FD074604E0FFF772FDC01B0228EA
:1022F00023D828688007F7D4207800072CD57948A0
:10230000A169D9B1C0F80090FFF762FD074604E06B
:10231000FFF75EFDC01B02280FD8686A8007F7D55B
:1023200071484FF4FA510068B0FBF1F0009000BF23
:102330000098411E0091FAD20EE080E0C0F80080C3
:10234000FFF746FD074604E0FFF742FDC01B0228E9
:1023500075D8686A8007F7D42078400760D5E869A7
:102360000027C00008D4E86940F08050E861E869BF
:10237000012700F0805000905C480168C90513D423
:102380000168834641F480710160FFF721FD8246B8
:1023900006E000BFFFF71CFDA0EB0A0064284ED842
:1023A000DBF80000C005F5D5E06801280AD008B1C7
:1023B000052813D0286A20F001002862286A20F03E
:1023C000040002E0286A40F001002862E06841F25F
:1023D000883B98B1FFF7FCFC82460BE0286A40F08E
:1023E00004002862EEE700BFFFF7F2FCA0EB0A0151
:1023F00059455AD8286A8007F6D50CE0FFF7E8FC63
:10240000824605E0FFF7E4FCA0EB0A0159454CD8F1
:10241000286A8007F6D41FB1E86920F08050E8618F
:10242000E06988B36968C1F38101022944D00228B8
:10243000C6F8608004D0FFF7CBFC044638E034E0F7
:10244000FFF7C6FC074604E0FFF7C2FCC01B0228EA
:102450002BD828688001F7D4206AB0F5803F05D1D9
:102460006868A16820F4003008436860D4E9080176
:102470000843696821F4741108436860C6F86090E5
:10248000FFF7A6FC044606E025E000BFFFF7A0FC2E
:10249000001B022809D828688001F7D51BE000BF7F
:1024A000FFF796FC001B022802D90320BDE8F88F35
:1024B00028688001F4D40EE00128F7D06868226A09
:1024C00000F48031914204D1616A00F470108842B6
:1024D00001D00120EAE70020E8E7000000100240F8
:1024E0000000424280044242180000200070004078
:1024F00010B5401EB0F1807F01D3012010BD4FF018
:10250000E02460610F21601700F059FC0020A061F9
:1025100007202061002010BD7047704770B590F80B
:102520003C20012A26D0012480F83C40022280F879
:102530003D2003685A689D6822F070060A6832439D
:102540005A600D4B02689A4208D0B2F1804F05D014
:102550000A4B9A4202D00A4B9A4204D1496825F0AC
:1025600080031943916080F83D40002180F83C10C1
:10257000084670BD022070BD002C014000040040E0
:102580000008004010B5040003D094F83D0010B1DD
:1025900007E0012010BD002084F83C00204600F038
:1025A0001FF8022084F83D00211D206800F0F8FA91
:1025B000012084F8460084F83E0084F83F0084F847
:1025C000400084F8410084F8420084F8430084F815
:1025D000440084F8450084F83D00002010BD000050
:1025E00008B500680B49884212D10B48C16941F017
:1025F0000201C161C069002200F002000090114692
:102600001D20FFF751FCBDE808401D20FFF73EBC30
:1026100008BD0000000400400010024090F83D108A
:10262000012901D001207047022180F83D10006887
:102630000B49884208D0B0F1804F05D00949884243
:1026400002D00949884204D1816801F007010629B6
:1026500003D0016841F001010160002070470000D3
:10266000002C0140000400400008004070B5044602
:1026700090F83C00012817D0012584F83C50022036
:1026800084F83D002068826822F0770222F47F42BD
:1026900082600868502830D00DDC20284DD005DC41
:1026A00098B310283BD148E0022070BD302844D0B8
:1026B000402834D139E0602828D0702806D0B0F501
:1026C000805F2CD0B0F5005F29D10AE0CB68D1E95A
:1026D0000121206800F09AFA2068816841F07701B2
:1026E00009E0CB68D1E90121206800F08FFA206869
:1026F000816841F48041816011E0CA6849682068BE
:1027000000F096FA5021206807E016E0CA68496890
:10271000206800F09EFA6021206800F081FA84F8B9
:102720003D50002084F83C0070BDCA6849682068AC
:1027300000F07EFA40212068EFE72268014610464B
:10274000EBE7704770B50446006801694FF000057B
:10275000C943890715D4C168C943890711D4E91E43
:10276000016101202077206880698007204602D01F
:10277000FFF7E7FF04E000F098F8204600F096F835
:10278000257720680169C943490717D4C168C9433F
:10279000490713D46FF004010161022020772068FB
:1027A000806910F4407F204602D0FFF7CAFF04E0A2
:1027B00000F07BF8204600F079F825772068016961
:1027C000C943090716D4C168C943090712D46FF079
:1027D00008010161042020772068C0698007204635
:1027E00002D0FFF7AEFF04E000F05FF8204600F0F3
:1027F0005DF8257720680169C943C90617D4C16807
:10280000C943C90613D46FF0100101610820207775
:102810002068C06910F4407F204602D0FFF791FF86
:1028200004E000F042F8204600F040F825772068E8
:102830000169C943C90708D1C168C943C90704D19F
:10284000891E0161204600F032F820680169C94301
:10285000090609D4C168C943090605D46FF080018F
:1028600001612046FFF758FE20680169C943490607
:1028700009D4C168C943490605D46FF0400101611C
:10288000204600F015F820680169C94389060BD479
:10289000C168C943890607D46FF020010161204651
:1028A000BDE87040FFF739BE70BD70477047704794
:1028B000704770B5040004D094F83D00002510B1B5
:1028C00006E0012070BD84F83C50204600F022F85C
:1028D000242084F83D002068C16821F40051C160C3
:1028E000204600F0C9F92068016921F49041016196
:1028F0002068416921F02A0141612068C16841F4E2
:102900000051C1602564202084F83D0084F83E0019
:10291000002070BD30B585B000240094019402946D
:10292000039400681449884223D11448C16941F4D2
:102930000031C161C16901F400310491816941F044
:102940000401816180690E4D00F0040004900420B0
:102950000090022001900320039069462846FFF76B
:1029600047F90820CDE90004694628460294FFF79C
:102970003FF905B030BD00000044004000100240A7
:10298000000801402DE9F843044690F83D001F4639
:1029900016460D4620284CD1C5B1BEB194F83C0076
:1029A000012846D0012084F83C004FF00008C4F80C
:1029B0004080212084F83D00FFF70AFAA684814672
:1029C000E684A068B0F5805F03D004E00120BDE894
:1029D000F883206928B12E465FF0000584F83C801A
:1029E0000EE00026FAE78021204600F0A1F9A0B908
:1029F000AEB116F8010B21684860E08C401EE084FF
:102A0000E08C4B464FF0000200970028EBD14FF0CE
:102A10004001204600F08CF930B10320D7E735F8AB
:102A2000020BC0F30800E6E7202084F83D000020F8
:102A3000CDE70220CBE7FEE7FEB500241B4800945B
:102A40000194194902940160891581600473047529
:102A5000032505614FF460214460C161FEF752FE19
:102A600008B172B6FEE7009401240226CDE90146C2
:102A700069460E48FEF752FD08B172B6FEE7CDE991
:102A8000004669460948FEF749FD08B172B6FEE7FF
:102A90000420CDE9000569460448FEF73FFD002803
:102AA00001D072B6FEE7FEBD002401401C000020EC
:102AB00010B586B000241748009401940294039442
:102AC000049413490594016041F63F71C0E9011473
:102AD0006321C0E903148461FFF754FD08B172B6A5
:102AE000FEE74FF48050009069460A48FFF7BEFDAC
:102AF00008B172B6FEE72020CDE9040404A9054818
:102B0000FFF70CFD002801D072B6FEE706B010BD3D
:102B1000000400404C000020FEE7FEE770477047CD
:102B2000FFF75CB930B593B028216846FDF752FC39
:102B300014210AA8FDF74EFC002401200F94022561
:102B4000049000951020119405901094129407940D
:102B50006846FFF73DFB08B172B6FEE70F20CDE9EE
:102B60000A044FF48060CDE90C4000210AA80E94BD
:102B7000FFF742FA08B172B6FEE70FA80F9511945D
:102B8000FFF7C4F9002801D072B6FEE713B030BDDC
:102B9000704700000148FFF7D5BD00004C00002041
:102BA000F0B50268164B174C174D4FF0804798420E
:102BB00005D0B84203D0A04201D0A84203D122F0F0
:102BC00070064A683243984205D0B84203D0A0420A
:102BD00001D0A84203D122F44074CA6822434C6950
:102BE00022F08002224302608A68C2620A6882621E
:102BF000984201D10969016301214161F0BD0000E2
:102C0000002C0140000400400008004010B584681A
:102C100042EA032224F47F440A432243826010BD27
:102C2000826822F070020A4342F007018160704717
:102C300010B5036A046A24F001040462846924F074
:102C4000F00444EA021423F00A020A438461026297
:102C500010BD10B5036A23F0100303628369046A90
:102C600023F4704343EA023224F0A00343EA011143
:102C70008261016210BD000070B504460068016900
:102C8000E26821F44051114301612169A0680843C1
:102C9000616908432168CA6841F20C639A430243A0
:102CA000CA6020684169A26921F440711143416101
:102CB0001E492068884202D1FFF744FA01E0FFF77D
:102CC00031FA00EBC00101EB001260686421800062
:102CD000B2FBF0F3B3FBF1F36FF018067343B2FBF2
:102CE000F0F5B2FBF0F605EB8305322303EB051597
:102CF000B5FBF1F5B6FBF1F605F0F00505EB0615B1
:102D0000B2FBF0F6B2FBF0F0B0FBF1F06FF018029E
:102D1000504306EB800003EB0010B0FBF1F021689C
:102D200000F00F002844886070BD000000380140AA
:102D30002DE9F041984617460E460446069D1DE0D3
:102D4000681C1BD02DB1FFF743F8A0EB0800A84288
:102D500014D92068C16821F4D071C160206841692C
:102D600021F001014161202084F83D0084F83E00FB
:102D7000002084F83C000320BDE8F0812068006852
:102D800036EA000004D00020B842D9D00020F3E792
:102D90000120F9E7FEE7490050EAC12018BF0420EE
:102DA0004A0D18BF40F0010040F2FF72B2EB515FD4
:102DB00008BF40F00200012808BF0520704709073E
:102DC000090E002804DB00F1E02080F800147047B1
:102DD00000F00F0000F1E02080F8141D704730383B
:102DE0000A2801D2012070470020704708B5FEF77D
:102DF000FDFFFFF797FE6F48816941F00401816193
:102E0000816901F004010091416941F001014161D2
:102E10004069002200F00100009011460B20FFF7EE
:102E200043F80B20FFF732F8FFF706FEFFF740FEEE
:102E3000624861490C2201604FF4E1314160002198
:102E40008160C160C0E904128161C161FFF731FD99
:102E500008B172B6FEE759484838FFF7DFFB57491B
:102E600003224431A1F1BC00FEF72CFD534CDFF8E6
:102E70005081DFF85091544D44344FF066374F483D
:102E800052A150302268FDF7AFF94C4855A1783077
:102E90006268FDF7A9F9494858A1A030A268FDF77A
:102EA000A3F9206800F07CFA3A46434600F08CFA19
:102EB00000224B4600F01CF900F0E8F806462860B6
:102EC000606800F06DFA3A46434600F07DFA002251
:102ED0004B4600F00DF900F0D9F86860A06800F0EA
:102EE0005FFA3A46434600F06FFA00224B4600F084
:102EF000FFF800F0CBF8A860304600F063FB024614
:102F00002E480B4643A1C830FDF76EF9686800F003
:102F100059FB024629480B4644A1F030FDF764F9FD
:102F2000A86800F04FFB02460B4646A14B48FDF750
:102F30005BF922485030FDF72EFA204982B20A236D
:102F400050311E48FFF71EFD44485038FDF723FA64
:102F5000424982B20A2350391848FFF713FD174837
:102F60007830FDF718FA154982B20A2378311348F0
:102F7000FFF708FD39482838FDF70DFA374982B2C6
:102F80000A2328390D48FFF7FDFC34487838FDF74F
:102F900002FA324982B20A2378390848FFF7F2FC74
:102FA0002E48FDF7F8F982B20A232C490348FFF7AF
:102FB000E9FC64E700100240004400409400002057
:102FC00066660A4000FEAF40000000204B313A2008
:102FD0004469672E207672652E203D2025640D0AF7
:102FE000000000004B323A204469672E207672655B
:102FF0002E203D2025640D0A000000004B333A20AE
:103000004469672E207672652E203D2025640D0AC6
:10301000000000004B313A204E61706F6E203D2061
:10302000252E336620560D0A000000004B323A2050
:103030004E61706F6E203D20252E336620560D0A9E
:10304000000000004B333A204E61706F6E203D202F
:10305000252E336620560D0A00000000AC0100202A
:1030600010B500290AD00878002807D00548784410
:10307000FDF788FD002801D0002010BD02487844EB
:1030800010BD0000120700000A07000021F00042F6
:10309000A2F16052B2F5801F01F0004328BFD2F1C7
:1030A0007F6C0BD95FEA001C43EAC20242EB50700E
:1030B00018BF704728BF20F001007047B2F5801F8D
:1030C000BCBF184670474FEA410C1CF5001F02D2E6
:1030D000084600F0E8BA70B500F020FA0000008958
:1030E000FFF7F6BF4FF00040A0F5800070470000EA
:1030F0002DE9C04130B4DFF8A0C23CEA111418BF7A
:103100003CEA131400F0EC8081EA03051CEA111478
:1031100044EAD57418BF1CEA131500F0C780A4EB6D
:1031200005044FF0004545EAC12145EAC32341EAC1
:10313000505143EA525304F17F74994204F500342C
:103140004FEAC0204FEAC22208BF904200F09C80A4
:103150004FEA13650FF24016765D4FEA134506FB02
:1031600005F7C7F1807706FB07F74FEAD737A7FBCC
:1031700003687642C8F58038A7FB06CE38BFA8F1B1
:10318000010807FB08E64FF0000EA6FB028CE6FBE9
:1031900003CEDCF1000CCEF1004E38BFAEF1010ED3
:1031A000A6FB0C584FF000074FF00005E6FB0E871A
:1031B000A1FB08C6A0FB07CE16EB0E0645F10005E5
:1031C000E1FB076515F1E04E7EBFA4F580345FEAB0
:1031D00046066D4116F1800745F100054FEA1727B5
:1031E0004FEA066647EA0567A6F1DE46B6F1805F5C
:1031F0004FEA15251FD9384624F0010C05EBC471A0
:10320000BCF1FE6F01EB0C1102D8F0BCBDE80081EF
:1032100024425CBF01F5801E9EEAC47F02D4F0BC4C
:10322000BDE80081244238D4F0BCA1F1C041BDE822
:10323000004100F0C1B94FEAD22242EA43524FEABC
:10324000D323A7FB02864FEAD02040EA415007FB78
:1032500003661EEA0E0F4FEAD12105FB026658BF36
:10326000A6EB0056B6EB00564FEA520E4EEAC37E6E
:1032700018EB0E0E56EB530EBDD518EB02085E414F
:103280007F1C55F10005B6E74FF480154FF000079D
:103290004FF000064FF00008ADE7F0BC4FF0000023
:1032A00001F1C04101F00041BDE8008111EA0C1FAD
:1032B0000CEA131500D00CE013EA0C1F00F0258077
:1032C0004FF00000F0BC81EA030101F00041BDE8CD
:1032D0000081F0BCBDE8004181EA030100F06CB957
:1032E000F0BCBDE8004170B500F018F9097EFC3E65
:1032F00000F007B881EA03014FF0000001F000413F
:10330000704781EA030100F057B9F0BCBDE8004105
:103310004FF0000021497047FFFDFBF9F7F5F4F28B
:10332000F0EEEDEBE9E8E6E4E3E1E0DEDDDBDAD860
:10333000D7D5D4D3D1D0CFCDCCCBCAC8C7C6C5C4BE
:10334000C2C1C0BFBEBDBCBBBAB9B8B7B6B5B4B3D5
:10335000B2B1B0AFAEADACABAAA9A8A8A7A6A5A4C0
:10336000A3A3A2A1A09F9F9E9D9C9C9B9A99999884
:103370009797969595949393929191908F8F8E8E27
:103380008D8C8C8B8B8A89898888878786858584B4
:1033900084838382828181800000FF070000F87FA0
:1033A000B0FA80F310FA03F10AD0C3F11D0303F55C
:1033B00080634FEA41504FEA035202EBD12170473C
:1033C0004FF0000070470000DFF848C170B51CEAFC
:1033D000111E1EBF1CEA13159EEA0C0F95EA0C0F76
:1033E00000F06F8081EA030423EA4C134EEAD47E96
:1033F00021EA4C1141F4801143F48013AE44A1FB47
:10340000024CA0FB0365AEF17F7E361955EB0C052F
:10341000A1FB034C4CF10003A0FB021C16EB0C06B5
:10342000654153F10003094218BF46F0010613F449
:10343000007F0BD14FEA03314FEA0530340341EAF4
:10344000155140EA16506FF003020AE04FEAC3211B
:103450004FEAC520F40241EA555140EA56506FF058
:10346000020202EB2E4201EB025585EACE710AD030
:103470005FEA440C18BF24F0004450F1000041F111
:10348000000120EAD47040F2FE7C624500D270BD9B
:10349000A84214BF4FF080444FF04044002E08BFB4
:1034A0000024BEF1806FA8BFA1F1C041BDE870400B
:1034B00080F282804FF0000001F1C04101F0004134
:1034C00070479EEA0C0F0CEA131518BF95EA0C0F13
:1034D00006D04FF0000081EA030E0EF0004170BDEF
:1034E00000F01CF88900013E00F007B800F009B8B0
:1034F0004FEA430C5FEA5C5C08D081EA030100F00C
:103500005BB84FEA410C5FEA5C5CF6D14FF000001B
:10351000014970470000FF070000F87F0EF1020E1E
:103520002EF0030E5EF8046B364205D4012A43EBFD
:10353000030515F5001F12D8012841EB010C1CF5FD
:10354000001F0CD80ED14FEAD17C15F5001F0CEBF3
:103550004C0C0CF1020C08BF4CEBD37C04E04FF098
:10356000080C01E04FEAD37C0CEB4C0526FA05F67B
:1035700006F00706B6F1040C06D20EEB860CBDE889
:1035800070404CF0010C6047DFE80CF0090B0202C0
:103590004FF000414FF00000A1F5002170BD194629
:1035A0001046012851EB010418BFD4F5001484BF64
:1035B000002001F0004170BD0808A0F500114FEA9D
:1035C0003101704743004FEAD30C4FEA3C0C4340B3
:1035D0001FBF40070CF1605113F0FE4F70471CF005
:1035E000006F03D100200CF0004170470CF0004345
:1035F00043EA507010B540EACC0000F00EF800BF6E
:10360000000000924FEA0001FFF7D6BF4FF00041E3
:103610004FF00000A1F5002170470EF1020E2EF0D0
:10362000030E5EF8044B244204D44FEA4102B2F187
:103630007F4F11D84FEA4003B3F17F4F0CD80ED122
:103640004FEAD07CB2F17F4F0CEB4C0C0CF1020C2A
:1036500008BF4CEBD17C04E04FF0080C01E04FEACE
:10366000D17C0CEB4C0324FA03F404F00704B4F10E
:10367000040C06D20EEB840CBDE810404CF0010C9B
:103680006047DFE80CF0070802024FF00040A0F5A9
:10369000800010BD0846420018BFD2F1807288BF7A
:1036A00000F0004010BDFF2141EAD050C005704736
:1036B000FCF7EABF00000000000000000102030464
:1036C0000607080900000000010203040240000090
:1036D000000000A00000000005400000000000C83D
:1036E000000000000C4000000000409C00000000B2
:1036F000194000000020BCBE000000003440000063
:10370000BFC91B8E00000004B5400000504BCFD055
:103710006607E2CF010000006C4100003E8251AA22
:10372000DFEEA73401000000D9420000DCB5A0E2C2
:103730003A301F97FFFFFFFFB4450000FD25A0C8EA
:10374000E9A3C14FFFFFFFFFFF3F00000000008023
:1037500000000000FF3F00000000008000000000AB
:103760009C370008000000201C0000002801000811
:10377000B83700081C0000205C0800004401000865
:103780001C00000043000000F8FFFFFF0C000000D9
:103790000E0000000F0000002E00000000000000DE
:1037A0000000000000000000010000001000000008
:0837B000000000000024F400F9
:04000005080000ED02
:00000001FF
